:10332600EF1FAA0670011E4A600B7DF5EDD39400CF
:0533360040EE1D80F7D0
:01333B00226F
:0F338900C2EBC29712333C1233DB12335280FB7C
:10000300B9A6C4DCB2CECAFDB2E2C1BFD3EFD1D42C
:10001300CAD4B6C1B3F6BEDDB1B3B9E2BFD8D6C652
:10002300B3A7C9E8D6C3D0DEB8C4C3DCC2EBE3D000
:10003300D6B5CBC0CAB1BCE4C1E9C3F4B6C8D6D007
:10004300CEC4BCECC9CFC0ADB5E7D7E8C7E5BFD5D3
:10005300B4EDBCC7C2BCD4DACFDFC3FCC1EECAE483
:10006300C8EBBFDAC4A3C4E2D6F7D6E1D0C5BAC59C
:10007300BCCCC6F7D1A1D4F1C8B7C8CFC8A1CFFBB8
:1000830000040404FC04141410907F1010F000000A
:10009300040C0404034222110C232060201F0000DF
:1000A30010B897929094B810007F48484474200089
:1000B30000FF0A0A4A8A7F00003F4444427220003C
:1000C3002020282CAA6B38AC2464A62C2020000006
:1000D30002424555524A2924241212090B060200F2
:1000E30010925438FF38545280F01F1210F0100051
:1000F30042422A2E131A26024020130C336020009A
:100103000831866000FE02F202FE00F80000FF00E4
:1001130004FC03008047300F1067000740807F0016
:10012300404040DF555555D5555555DF40404000BB
:10013300404040575555557F555555575040400001
:100143002021EE0400809292F29E9292F28280002D
:1001530000007F201000007E222222227E00000069
:10016300000404A4A4A4A5A6A4A4A4A404040400B1
:10017300000000FC44444444444444FC00000000A8
:100183004042DC08009090909090FF10121C1000E9
:1001930000007F201020201F101001061820780077
:1001A3004042CC0400509434D41FD414543410006F
:1001B30000007F2010824322120A070A12E2420043
:1001C3000000FC40404040FF4040404040FC0000F5
:1001D30000007E202020203F20202020207E0000C1
:1001E300080808FF8840FE929292F292929E800045
:1001F3000242817F40300FFC4444474444FC0000EA
:100203002064249494BF80809FA4A4A22238000079
:10021300000000FF121212121252927F000000001F
:10022300004042445CC8407F40C0504E44604000A0
:100233000080402018070000003F40404040780005
:10024300080808FF8848009848280A2C48D808005E
:100253000242817F0000404242427E4242424000CD
:1002630000504F4A48FF48484800FC0000FF000088
:1002730000003F0101FF21613F000F40807F00002C
:100283000000FE0202020202020202020202020055
:1002930040300F00000000000000000000000000DC
:1002A3004041CE04008040BE828282BEC0404000F6
:1002B30000007F20908040432C10102C43C040004E
:1002C30000202FA9A9AFE9B9A9AFA9A92F20000040
:1002D300808080FFAAAAAAAAAAAAAAFF8080800077
:1002E3002010FC07F220988F54A42454CC80800063
:1002F30000007F000354544A2B2515120A090000FD
:1003030000C44444447C8040F01F1210F0101000DD
:10031300007F201048442020100B0C132060200085
:1003230000582404F4048DB64434CC9424CC040043
:10033300020602794141417D41414140780000007C
:100343000282E25E42C20002FA828282FE800000E2
:1003530001007F10103F000404044484403F000068
:1003630000F801D25050D212FE169A1202FE00007B
:1003730000FF0009090515100906095C807F0000CC
:100383008040F02F0204E4A4B4AFA6A4E404000068
:100393000000FF0040407F4A4A4A4A4A7F404000EB
:1003A3000002C2B21E12927202FE82424222220056
:1003B30042412020130C0300003F4040404078009E
:1003C30000FC444444FC1090101010FF1010100067
:1003D30000070404040700000340807F00000000BE
:1003E30000F8010600F092929292F20202FE0000DF
:1003F30000FF00000007040404040740807F00009E
:100403000000222A2A2A2AEAAA2A2AAA7F0200000C
:100413000080404423100C030408122160200000D4
:10042300201CF7345414F44430FF1210F010100061
:1004330001011F1355917F119041360C33C04000C9
:100443000000FC042424FCA5A6A4FC24242404000A
:1004530080601F808042462A12122A2642C0400032
:100463000000FC08080808FF08080808FC0800004A
:1004730000000702020202FF02020202070000005C
:10048300080808087888090E08887808080808000A
:100493004040402020110A040A111020602020004F
:1004A300088868FF28481048444344485010100007
:1004B3000201007F0020222C212E30282722200039
:1004C30000000000000000FE4040404040000000EB
:1004D300004040404040407F40404040406040003A
:1004E300101010FF90500048890A0E08E8480800D1
:1004F3000242817F00202020213E203C2320200037
:100503000000F848484848FF48484848F8000000B9
:1005130000000F040404043F444444444F4070006B
:1005230000FF1129C701FE2222222222FE00000021
:1005330000FF020443407F42424242427F40400068
:10054300106106E01820AAAAAABFAAAAAA2A000034
:100553000404FF000000FF0A0A0A4A8A7F00000021
:10056300100C8444241405060414244484140C003D
:10057300004040414141417F4141414140400000F1
:1005830040302CE7242440487F48487F48484000B7
:10059300010101FF412100FF4949494949FF000089
:1005A30040414EC4000000C242424242427E00002B
:1005B3000000007F2010003F404040404078200072
:1005C300202022AA2A2A2AEA2A2AAAFE2020200058
:1005D30000103010094A847F02050818301000000B
:1005E300000404C4649C878484E4848484840400B5
:1005F3000402017F00202020203F20202020200013
:10060300406058C76200909090FF90929C94800045
:10061300202223121212202010130C142240F8005F
:100623004040A090A8A4A221A2A4A890B06020005A
:1006330000003F0808081F00FF0010301F000000E3
:100643008080404020100C23440810A060C040006C
:100653000000000101091121F14905030100000017
:1006630044F44FE4446490989493149808D0100091
:10067300040404FF0202FF4A8A7F003F80FF000058
:100683000000000001837618608000000000000075
:100693004020100806010000000003041830100079
:1006A3000000FC040404040404040404FC0000002B
:1006B30000003F0808080808080808083F00000071
:1006C30010D0FF509004F4545F54545FF4040000BE
:1006D3000300FF0000848545350F152565C44400DC
:1006E300101090FF5010FC0002040C0000FE0000EC
:1006F3000121403F00005F48242210100C136000CA
:1007030000001010101011F61210101098100000B5
:10071300002021212121213F2121212121312000DC
:10072300C8B88FEA888800F01010FF1010F000009E
:10073300080808FF0404007F11111F11117F000036
:10074300804030FC070AA8A8A9AEAAA8A8080800F8
:100753000000007F00007E22222222227E00000071
:100763004040405FD15151515151515F4040400091
:1007730000000002070202224282423E0000000003
:100783002038A7623000FE4850C0FFC0504C4000E4
:100793002223221212007F4846415F404146400017
:1007A30040404F4949C9CF70C0CF4959694F0000F4
:1007B30002027E4545447C007C4445457E0602009A
:1007C300404042CC00504EC8487FC84848400000D3
:1007D3000040201F2048464140404748484E4000C3
:1007E3000808FF88480842462AD22A4642808000E9
:1007F30042817F000008090909FF09090908080067
:100803000084E45C44C410F89792F29A96F20000D4
:1008130001003F08884F300F04043F44847F0000E9
:10082300404142CC04000000807F800000000000B3
:100833000000007F209060180700030C30C04000C8
:100843000202FE929292FE02027C8404847C0400E3
:1008530010100F080804FF042210090609301000C5
:10086300083001C63000E438203F203028E400007F
:100873000404FF000000FF0909090949897F0000FA
:10088300202122232425262728292A2B2C2D2E2FED
:10089300303132333435363738393A3B3C3D3E3FDD
:1008A300404142434445464748494A4B4C4D4E4FCD
:1008B300505152535455565758595A5B5C5D5E5FBD
:1008C300606162636465666768696A6B6C6D6E6FAD
:1008D300707172737475767778797A7B7C7D7E7F9D
:1008E3000000000000000000000000000000000005
:1008F300000038FCFC3800000000000D0D00000073
:10090300000E1E00001E0E0000000000000000008C
:1009130020F8F820F8F82000020F0F020F0F020052
:10092300387C444747CC98000306041C1C0703008B
:1009330030300080C06030000C060301000C0C0056
:1009430080D87CE4BCD84000070F0808070F0800D4
:1009530000101E0E00000000000000000000000058
:100963000000F0F80C040000000003070C0800006E
:100973000000040CF8F000000000080C070300005E
:1009830080A0E0C0C0E0A0800002030101030200D8
:10099300008080E0E080800000000003030000008E
:1009A30000000000000000000000101E0E00000008
:1009B30080808080808080000000000000000000B4
:1009C30000000000000000000000000C0C0000000C
:1009D30000000080C06030000C060301000000002E
:1009E300F8FC04C424FCF800070F0908080F0700EB
:1009F300001018FCFC0000000008080F0F08080096
:100A0300080C84C4643C18000E0F0908080C0C0081
:100A1300080C444444FCB800040C0808080F070001
:100A2300C0E0B098FCFC8000000000080F0F080035
:100A33007C7C4444C4C48400040C0808080F0700E9
:100A4300F0F84C4444C08000070F0808080F070063
:100A53000C0C0484C47C3C0000000F0F0000000059
:100A6300B8FC444444FCB800070F0808080F07000B
:100A7300387C444444FCF800000808080C070300D1
:100A830000000030300000000000000606000000F7
:100A930000000030300000000000080E06000000D7
:100AA3000080C0603018080000000103060C080035
:100AB3004040404040404000020202020202020065
:100AC3000008183060C0800000080C060301000015
:100AD300181C04C4E43C18000000000D0D000000C5
:100AE300F0F808C8C8F8F000070F080B0B0B01005B
:100AF300E0F0988C98F0E0000F0F0000000F0F005B
:100B030004FCFC4444FCB800080F0F08080F07005E
:100B1300F0F80C04040C180003070C08080C06007A
:100B230004FCFC040CF8F000080F0F080C0703008A
:100B330004FCFC44E40C1C00080F0F08080C0E0016
:100B430004FCFC44E40C1C00080F0F080000000028
:100B5300F0F80C84848C980003070C0808070F0036
:100B6300FCFC404040FCFC000F0F0000000F0F0096
:100B7300000004FCFC0400000000080F0F08000044
:100B830000000004FCFC0400070F08080F07000026
:100B930004FCFCC0F03C0C00080F0F00010F0E001A
:100BA30004FCFC0400000000080F0F08080C0E00F2
:100BB300FCFC387038FCFC000F0F0000000F0F0026
:100BC300FCFC3870E0FCFC000F0F0000000F0F006E
:100BD300F0F80C040CF8F00003070C080C070300F2
:100BE30004FCFC44447C3800080F0F08000000009C
:100BF300F8FC040404FCF800070F080E3C3F270030
:100C030004FCFC44C4FC3800080F0F00000F0F0065
:100C1300183C6444C49C1800060E0808080F07001B
:100C2300001C0CFCFC0C1C000000080F0F0800004B
:100C3300FCFC000000FCFC00070F0808080F07007D
:100C4300FCFC000000FCFC000103060C0603010091
:100C5300FCFC008000FCFC00030F0E030E0F0300DE
:100C63000C3CF0C0F03C0C000C0F0300030F0C0015
:100C7300003C7CC0C07C3C000000080F0F08000053
:100C83001C0C84C4643C1C000E0F0908080C0E00E5
:100C93000000FCFC0404000000000F0F0808000023
:100CA3003870E0C0800000000000000103070E0060
:100CB30000000404FCFC0000000008080F0F000003
:100CC300080C0603060C08000000000000000000EA
:100CD3000000000000000000202020202020202011
:100CE30000000307040000000000000000000000F3
:100CF30000A0A0A0E0C00000070F0808070F08002D
:100D030004FCFC2060C08000080F0708080F0700E0
:100D1300C0E0202020604000070F0808080C0400F2
:100D230080C06024FCFC0000070F0808070F0800C0
:100D3300C0E0A0A0A0E0C000070F0808080C040052
:100D430040F8FC440C180000080F0F0800000000D6
:100D5300C0E02020C0E02000276F48487F3F00000C
:100D630004FCFC4020E0C000080F0F00000F0F0040
:100D7300000020ECEC0000000000080F0F0800004A
:100D83000000000020ECEC0000307040407F3F008A
:100D930004FCFC80C0602000080F0F01030E0C0050
:100DA300000004FCFC0000000000080F0F08000016
:100DB300E0E060C060E0C0000F0F000F000F0F0005
:100DC30020E0C02020E0C000000F0F00000F0F0044
:100DD300C0E0202020E0C000070F0808080F07002C
:100DE30020E0C02020E0C000407F7F48080F0700BC
:100DF300C0E02020C0E02000070F08487F7F4000AC
:100E030020E0C0602060C000080F0F080000000051
:100E130040E0A02020604000040C09090B0E0400F0
:100E23002020F8FC202000000000070F080C04001D
:100E3300E0E00000E0E00000070F0808070F0800EB
:100E430000E0E00000E0E0000003070C0C070300F3
:100E5300E0E0000000E0E000070F0C070C0F0700C4
:100E63002060C080C0602000080C0703070C080046
:100E7300E0E0000000E0E000474F4848683F1F0003
:100E8300606020A0E06020000C0E0B09080C0C0031
:100E9300004040F8BC040400000000070F080800ED
:100EA300000000BCBC0000000000000F0F000000A9
:100EB300000404BCF84040000008080F07000000CD
:100EC300080C040C080C04000000000000000000E3
:100ED30080C0603060C08000070704040407070077
:100EE300000000000000005F00000007000700147E
:100EF3007F147F14242E7B2A12231308646236493D
:100F03005620500004030100001C2241000041222E
:100F13001C0022147F142208087F080840301000A8
:100F23000008080808080060600000201008040298
:100F33003E5149453E00427F4000625149494621A6
:100F430041494D331814127F1027454545393C4A12
:100F53004949310171090503364949493646494929
:100F6300291E0036360000403636000008142241A0
:100F73000014141414140041221408020159050228
:100F83003E415D555E7C1211127C7F494949363ED4
:100F9300414141227F4141413E7F494949417F09C6
:100FA3000909013E415151727F0808087F00417FC2
:100FB30041002040413F017F081422417F404040CF
:100FC300407F020C027F7F0408107F3E4141413E77
:100FD3007F090909063E4151215E7F0919294626E9
:100FE3004949493201017F01013F4040403F1F20F1
:100FF30040201F7F2018207F6314081463030478A4
:10100300040361514945437F7F41410002040810B5
:10101300200041417F7F04027F0204081C2A080844
:10102300000001020424545438407F2844443838D3
:1010330044444408384444287F3854545408087EB0
:1010430009090298A4A4A4787F080404780000790D
:10105300000000808879007F1028444000417F40D1
:1010630000780478047804780404783844444438D5
:10107300FC2424241818242424FC04780404084899
:1010830054545424043F4444243C40403C401C20DA
:1010930040201C3C403C403C44281028449CA0A0D9
:1010A300907C4464544C44083641000000007700AF
:1010B3000000004136080804081008552A552A552F
:1010C300FFFEFCF8F0E0C08000000103070F1F3FA4
:0210D3007FFF9D
:0F321A00015100015000014E00014F000152010F
:0931CE007F401231D7ED24B8FF57
:1031D700C2B2C2A6C2A58F80000000000000000096
:0D31E700D2B20000000000000000C2B222C1
:1032C400C2B2D2A6C2A58F80000000000000000098
:0D32D400D2B20000000000000000C2B222D3
:0D339800BF01047F3F80027F3E1231D7222B
:0633A500E4FF123398FF63
:0733AB00EF24C0FF0231D73F
:102CE6007C002523FFEC3EFE74832FF58274003EA4
:0B2CF600F583E493F524AB20AD25FF2F
:102D0100AE05AD07EBD3940750047F0180027F002D
:102D1100EED394BF50047C0180027C00EC5F6037ED
:102D2100EED3943F500875A00DEE24408019EED3E8
:102D3100947F500775A00EAF06800DEED394BF505F
:102D41000A75A00FEE24C0FF1231D7EB24B8FF1291
:082D510031D7AF051232C42294
:10306A0075A00DE4FD1231CEE4FEE4FF1232C40E67
:10307A00BE40F70DBD08EEE4FF1233AB75A00EE4B7
:10308A00FD1231CEE4FEE4FF1232C40EBE40F70D4B
:10309A00BD08EEE4FF1233AB75A00FE4FD1231CE8A
:1030AA00E4FEE4FF1232C40EBE40F70DBD08EEE4A2
:0430BA00FF0233AB33
:1032840075A00D1233A57F0112339875A00E123369
:10329400A57F0112339875A00F1233A57F01023365
:0132A4009891
:081FEF007C002400FFEC3EFE23
:081FF7008E1D8F1E8D1F8B2033
:101FFF00851F25E4F521F522E52225E0FDE52133B6
:10200F00FC74032DF58274003CF583E493FBE51D0E
:10201F00B5031374042DF58274003CF583E49365C6
:10202F001E7001E4602EE522643F45217015AB2040
:10203F00AD1F7F2312314EE51F2553FDAB207F23AC
:10204F0002314E0522E52270020521C39440E5219D
:10205F00940040A4E55014606B14700302214724D0
:10206F000260030221A6E4F523E522AE217805C321
:10207F0033CE33CED8F9122CE605250523E523C33D
:10208F00941040E5851F25752310E522AE217805B4
:10209F00C333CE33CED8F97C002523FFEC3EFE743C
:1020AF00832FF58274003EF583E493F524E5200435
:1020BF00FBAD25AF24122D0105250523E523C39480
:1020CF002040C722E4F523E522AE217805C333CEA5
:1020DF0033CED8F97C002523FFEC3EFE74832FF519
:1020EF008274003EF583E493F4122CFA0525052340
:1020FF00E523C3941040D0851F25752310E522AE2C
:10210F00217805C333CE33CED8F97C002523FFECDD
:10211F003EFE74832FF58274003EF583E493F4F54D
:10212F0024E52004FBAD25AF24122D010525052341
:10213F00E523C3942040C622E4F523E522AE21789F
:10214F0005C333CE33CED8F9122CE605250523E58A
:10215F0023C3941040E5851F25752310E522AE217A
:10216F007805C333CE33CED8F97C002523FFEC3E60
:10217F00FE74832FF58274003EF583E4934480F55B
:10218F0024E52004FBAD25AF24122D0105250523E1
:07219F00E523C3942040C5B5
:0121A6002216
:062A02008F298D2A8B2BA9
:102A0800A92AE55164017045FF122D0109E4FA7500
:102A1800F005E529A42AF582E435F0F583E582245A
:102A280043F582E583340EF583E493F52CAD01ABD1
:102A38002BFF122D01090ABA05D5AD01AB2BE4FF16
:102A4800122D0109AD01AB2BE4FF022D01E4FA754B
:102A5800F010E529A42AF582E435F0F583E582240F
:102A6800E3F582E5833406F583E493F52CAD01ABF9
:102A78002BFF122D01090ABA08D5A92A7A0875F080
:102A880010E529A42AF582E435F0F583E58224E3EC
:102A9800F582E5833406F583E493F52CAD01E52B47
:0C2AA80004FBAF2C122D01090ABA10D259
:012AB40022FF
:06294B008F298D2A8B2B61
:10295100A92AE551640170477FFF122D0109E4FAAC
:1029610075F005E529A42AF582E435F0F583E582C1
:102971002443F582E583340EF583E493F4F52CAD1D
:1029810001AB2BFF122D01090ABA05D4AD01AB2B06
:102991007FFF122D0109AD01AB2B7FFF022D01E459
:1029A100FA75F010E529A42AF582E435F0F583E5FE
:1029B1008224E3F582E5833406F583E493F4F52C70
:1029C100AD01AB2BFF122D01090ABA08D4A92A7A4D
:1029D1000875F010E529A42AF582E435F0F583E5C0
:1029E1008224E3F582E5833406F583E493F4F52C40
:1029F100AD01E52B04FBAF2C122D01090ABA10D150
:012A010022B2
:062893008F298D2A8B2B1A
:10289900A92AE551640170487F80122D0109E4FAE3
:1028A90075F005E529A42AF582E435F0F583E5827A
:1028B9002443F582E583340EF583E4934480F52CB3
:1028C900AD01AB2BFF122D01090ABA05D3AD01AB3E
:1028D9002B7F80122D0109AD01AB2B7F80022D01C9
:1028E900E4FA75F010E529A42AF582E435F0F583B8
:1028F900E58224E3F582E5833406F583E493F52C38
:10290900AD01AB2BFF122D01090ABA08D5A92A7A04
:102919000875F010E529A42AF582E435F0F583E578
:102929008224E3F582E5833406F583E4934480F554
:102939002CAD01E52B04FBAF2C122D01090ABA10AD
:01294900D0BD
:01294A00226A
:0333D8008F5022F1
:1032E100BF010A75510175530875540122E4F55166
:0732F1007553087554022219
:1032F800D3EF9400EE9400400DE4FD0DBDC8FCEF43
:063308001F70ED1E80EABB
:01330E00229C
:03314B00FD7B0702
:10314E008F268D278B28E5501460101460162402EC
:10315E00701BAB28AD27AF26022A02AB28AD27AFD6
:0E316E002602294BAB28AD27AF26122893224C
:10333C00123284E4F551F550755308755402F54E6C
:06334C00F54F755201224D
:0333DB0002306A53
:0823A8008B098A0A890B8D0CD8
:1023B000E5527006854E0C854F0DE4F50EAB09AA6B
:1023C0000AA90B850E827583001221A7FF700302F4
:1023D0002485C394805069EFB40A0CE4F50CE554ED
:1023E000250DF50D022477E50CD394BF4009E4F5E3
:1023F0000CE554250DF50DE55014601014602624ED
:10240000027039AB0DAD0C122A028030AB09AA0A5A
:10241000A90B850E827583001221A7FFAB0DAD0CB1
:1024200012294B8017AB09AA0AA90B850E82758366
:10243000001221A7FFAB0DAD0C122893E55380339A
:10244000E50CD394B04007E4F50C050D050DAB0980
:10245000AA0AA90B850E827583001221A7FE850E9C
:1024600082758300A31221A7AB0DAD0C121FEF05DF
:102470000E7410250CF50C7401250BF50BE4350AD0
:0F248000F50A0223BDE5527006850C4E850D4FFF
:01248F00222A
:081E13008B128A1389148D154E
:101E1B00E4FEFDF519F51CAB12AA13A914851C825F
:101E2B007583001221A7600FD3948040050E051C0B
:101E3B0080010D051C80E0E4FF1232E1EEC454F08A
:101E4B00FFED75F008A42FF519D3947F4003751996
:101E5B007FE518543024F0600D24F06023242070AB
:101E6B0029E4F5198024C3E5179515FFE49400FECA
:101E7B00C3EF9519FFEE9400C313EF13F519800A06
:101E8B00C3E5179515C39519F519E5152519F51A18
:101E9B0085161BE51820E74C851A15E55064017073
:101EAB0021F51CE51CC39515503AAB16AD1C7FFFF5
:101EBB00122D01E51604FBAD1C7FFF122D01051C35
:101ECB0080E1E4F51CE51CC395155018AB16AD1C51
:101EDB00E4FF122D01E51604FBAD1CE4FF122D01EE
:101EEB00051C80E1E4F51CAB12AA13A914851C8216
:101EFB007583001221A7FF607CC394805049E55085
:101F0B0014601014602624027039AB1BAD1A122A10
:101F1B00028030AB12AA13A914851C8275830012A0
:101F2B0021A7FFAB1BAD1A12294B8017AB12AA13BB
:101F3B00A914851C827583001221A7FFAB1BAD1A58
:101F4B0012289374088025AB12AA13A914851C823E
:101F5B007583001221A7FE851C82758300A31221B5
:101F6B00A7AB1BAD1A121FEF051C7410251AF51A1F
:101F7B00051C021EF2E51830E7028062851A15E592
:101F8B00506401702CF51CC3E5179515FFE51CC3B8
:101F9B009F504BE515251CFDAB167FFF122D01E560
:101FAB0015251CFDE51604FB7FFF122D01051C807A
:101FBB00D6E4F51CC3E5179515FFE51CC39F501E12
:101FCB00E515251CFDAB16E4FF122D01E515251CAF
:101FDB00FDE51604FBE4FF122D01051C80D67F01E5
:031FEB001232E1CE
:011FEE0022D0
:08271A008E098F0A8D0BAA0342
:10272200E4F50CF50DEAD3940440027A04E50BD3E8
:1027320094A04003750BA0E4F9050DE50DAE0C70F5
:1027420002050C14250AF582E5093EF583E493FFA0
:10275200E50B29FDAB02122D0109B920DCE4F905D4
:102762000DE50DAE0C7002050C14250AF582E50983
:102772003EF583E493FFE50B29FDEA04FB122D01EC
:1027820009B920DBE4F9050DE50DAE0C7002050C6C
:1027920014250AF582E5093EF583E493FFE50B294A
:1027A200FDEA2402FB122D0109B920DAE4F9050D34
:1027B200E50DAE0C7002050C14250AF582E5093E02
:1027C200F583E493FFE50B29FDEA2403FB122D01B7
:0427D20009B920DA47
:0127D60022E0
:061C25008F0C8B0EA905D7
:101C2B00742D89F084C3742D9408FFE49400FEADE9
:101C3B000C7C001221D4E924FFFDEC34FFFC1221B3
:101C4B00E6A907EF4E70027903E4FAE91313135474
:101C5B001FFF6A602AEF2401FFE433FEEA6F700175
:101C6B00EE601CAB02AD0EE4FF122D01E50E04FD80
:101C7B007FFF122D01E50E2402FDE4FF021D1DE97D
:101C8B0054079010C393FFE9131313541FFBAD0EAE
:101C9B00122D01E9540793FFC374FF9FFFE50E0458
:101CAB00FDE9131313541FFB122D01E9540793FF86
:101CBB00E50E2402FDE9131313541FFB122D01E94A
:101CCB00131313541FFE2401FDE433FCC3ED9406E0
:101CDB00EC64809480503EE954079010CC93FFEE57
:101CEB0004FBAD0E122D01E9540793FFC374FF9F44
:101CFB00FFE50E04FDE9131313541F04FB122D0112
:101D0B00E9540793FFE50E2402FDE9131313541F47
:101D1B0004FB122D010AEA64066003021C567F01C4
:101D2B001232E1050CE4F511E50C75F06484F51045
:101D3B00600F2430FFE50F24F412314B7511018035
:101D4B000CE50F24F4FD7B077F2012314EE5107557
:101D5B00F064A4FFC3E50C9FF50C75F00A84F51035
:101D6B007005E511B40111E5102430FFE50F24FADD
:101D7B0012314B751101800CE50F24FAFD7B077FA7
:101D8B002012314EE50C75F00A8485F010E5102415
:101D9B0030FF7B07AD0F12314EE536D39401406215
:101DAB00E4F512E53614FFE512C39F5055C3E53633
:101DBB009512FF74472FF8E604F50C75F00A84852D
:101DCB00F010E5102430FFE5120475F008A4FEC3F3
:101DDB00E50F9EFD7B0712314EE51275F008A4FF4F
:101DEB00C3E50F9F14FD7B077F10122D01E51275C4
:101DFB00F008A4FFC3E50F9FFD7F10122D01051204
:071E0B0080A1E4FF1232E1A7
:011E120022AD
:1031A5004465736B746F70004275696C6420546973
:1031B5006D653A0044656320313520323030380082
:0931C50031343A33303A31300064
:10336600E4F52FF536F52DAF2D052D74432FF8E432
:02337600F6223D
:103109001233DB7BFF7A3179A5E4F51675177E75E5
:103119001810FD121E1375F007E53EA42407F58269
:10312900E5F0341CF583E493FB740193FA7402937C
:10313900F912223B75160675177E751810E4FD0203
:023149001E1353
:10337800E4F53D1233DB1233667D017F051233D04D
:013388002222
:10323F00AF3D053DEFB40F141233DB12317C7F64C9
:10324F007E191232F8E4F53D7D038002E4FDFF1292
:03325F0033D02247
:0933BE00E4F53DFDFF1233D022BD
:0933C700E4F53DFDFF1233D022B4
:1032A500AF2F052F743F2FF8A64DAF36053674485E
:0F32B5002FF8A62EAF2D052D74432FF8A6372224
:10326200152D7442252DF8E6F537152F743F252FBD
:10327200F8E6F54D153674482536F8E6F52E754C08
:02328200032225
:102EF700AB30AA31A93275F003E52EA4F58285F02F
:0F2F07008312225BE54D25E0F510751101E4FD05
:102F16008B0C8A0D890E8D0FE511B4011E7F0112EF
:102F260033D8AB0CAA0DA90E851016751778E4F5E3
:102F360018AD0F121E13E4FF0233D8AB0CAA0DA96D
:102F46000E851016751778E4F518AD0F121E1322AC
:1027D700E539D3940340057538038003853938E517
:1027E7004CB4010A1232A5E4F52EF54D801FE54CD5
:1027F700B4021AE53814FFE54DD39F4003E4F54DC5
:10280700E53914FFE52ED39F4003E4F52EE52EC3EB
:10281700954D4008E52E954DF50A800CC3E54D957D
:102827002EFFC3E5399FF50AE4F509E509C3953895
:10283700504EE50AAB30AA31A93275F003B52E1711
:10284700E52EA4F58285F08312225BE54D25E0F5A0
:1028570010751101E48014E50AA4F58285F083124E
:10286700225BE50925E0F510E4F511FD122F16E5C9
:102877003914B50A05E4F50A8002050A050980AB93
:0C288700750F787B7DAD39AF2E021C254B
:10257700852E0BE52E7007E53914F52E8002152EF2
:10258700E54D6021AB30AA31A93275F003E50BA404
:10259700F58285F08312225BAF4D154DEF25E0F5EF
:1025A70010E402263AE539D39403406B852E0AE4FA
:1025B700F509AB30AA31A93275F003E50AA4F58213
:1025C70085F08312225BE509122F0DE53914B50A50
:1025D70005E4F50A8002050A750901AB30AA31A99D
:1025E7003275F003E50AA4F58285F08312225BE5D4
:1025F7000925E0F510E4F511FD122F16E53914B59C
:102607000A05E4F50A8002050A0509E509C39403EA
:1026170040C9E4F54D8025E53914F54DAB30AA31B5
:10262700A93275F003E50BA4F58285F08312225BCE
:10263700E4F510F511FD122F16122EF7750F787BA2
:102647007DAD39AF2E121C257442252DF8E6FFE427
:04265700FD0233D07D
:10249000852E0BE53914B52E05E4F52E8002052EA8
:1024A000E53814654D601CAB30AA31A93275F003D4
:1024B000E50BA4F58285F08312225BAF4D054DEF4D
:1024C000022551E539D39403406D852E0A75090321
:1024D000AB30AA31A93275F003E50AA4F58285F084
:1024E0008312225BE50914122F0DE50A7007E53906
:1024F00014F50A8002150A750902AB30AA31A93217
:1025000075F003E50AA4F58285F08312225BE509E4
:102510001425E0F510E4F511FD122F16E50A7007F9
:10252000E53914F50A8002150A1509E509D3940066
:1025300050C8754D028028E4F54DAB30AA31A93260
:1025400075F003E50BA4F58285F08312225BE53973
:102550001425E0F510E4F511FD122F16122EF77573
:102560000F787B7DAD39AF2E121C257442252DF8D6
:07257000E6FFE4FD0233D099
:10265B0075F007E53EA424C4F582E5F0341BF58341
:10266B00E493F53975F007E53EA424C1F582E5F056
:10267B00341BF583E493FB740193FA7402938B3050
:10268B008A31F5321233DBE54CB401081232A5E482
:10269B00F52EF54DAB30AA31A93275F003E52EA41A
:1026AB00F58285F08312225BE4F51675177E75189B
:1026BB0010FD121E1375F002E52EA42415F582E50C
:1026CB00F0341CF583E493FE740193FF7B027D30A1
:1026DB0012271A75F007E53EA42407F582E5F034BE
:1026EB001CF583E493FB740193FA740293F9900045
:1026FB000312225B75160675177E751810E4FD1212
:0F270B001E13750F787B7DAD39AF2E121C252262
:1030BE00E52E14601914601F14602514602B146023
:1030CE00282405702F1233DB7D017F0A80291233ED
:1030DE00DB7D017F0F80201233DB7D017F1980178E
:1030EE001233DB7D027F14800E7442252DF8E6FF2D
:0B30FE00E4FD8003E4FDFF1233D0224C
:0333DE0002326256
:102E2F00E52E7007E53914F52E8002152EAB30AA6A
:102E3F0031A93275F003E52EA4F58285F0831222B5
:102E4F005BE4F51675177E751810FD121E1375F0DD
:102E5F0002E52EA42415F582E5F0341CF583E493E6
:102E6F00FE740193FF7B027D3012271A750F787B5A
:102E7F007DAD39AF2E121C257442252DF8E6FFE4E7
:042E8F00FD0233D03D
:102E9300E53914B52E05E4F52E8002052EAB30AAD4
:102EA30031A93275F003E52EA4F58285F083122251
:102EB3005BE4F51675177E751810FD121E1375F079
:102EC30002E52EA42415F582E5F0341CF583E49382
:102ED300FE740193FF7B027D3012271A750F787BF6
:102EE3007DAD39AF2E121C257442252DF8E6FFE483
:042EF300FD0233D0D9
:10317C007BFF7A3179ADE4F50DFD1223A87BFF7A44
:10318C003179B9750D02E4FD1223A87BFF7A3179F0
:09319C00C5750D04E4FD0223A831
:1022B8000001020304FF31090100000000FF337828
:1022C8000200000000FF323F0300000000FF33BEA1
:1022D8000400000000FF33C70506070809FF265B56
:1022E8000600000000FF30BE0700000000FF33DEDC
:1022F8000800000000FF2E2F0900000000FF2E93A9
:102308000A0B0C0D0EFF2F560B00000000FF330FB9
:102318000C00000000FF33E10D00000000FF33E473
:102328000E00000000FF33E70F10111213FF300EEC
:102338001000000000FF2BEA1100000000FF33FC32
:102348001200000000FF33FF1300000000FF3402FA
:102358001415161718FF2DC51500000000FF31F4DD
:102368001600000000FF33EA1700000000FF33EDFD
:102378001800000000FF33F0191A1B1C1DFF2FB2B4
:102388001A00000000FF33B21B00000000FF33F307
:102398001C00000000FF33F61D00000000FF33F9A9
:102AB500750801122D59EF24EF601A24FE602514C4
:102AC500603124027063E53775F008A424B9F582F6
:102AD500E43422802BE53775F008A424BAF582E4A6
:102AE5003422801CE53775F008A424BBF582E43454
:102AF50022800DE53775F008A424BCF582E4342264
:102B0500F583E493F53775F008A424BDF582E43424
:102B150022F583E493FB740193FA740293F98B55C0
:102B25008A56F55712228B8003E4F508E54C60269A
:102B3500E53775F008A424BDF582E43422F583E475
:102B450093FB740193FA740293F98B558A56F557E2
:082B550012228BE4F54CAF08DD
:012B5D002255
:102F56001233DBE53E75F007A424CFF9741B35F078
:102F6600FA7BFF8B33F53489359000031221A7F5E0
:102F76003912223B8B308A31893275F007E53EA43F
:102F86002407F582E5F0341CF583E493FB74019382
:102F9600FA740293F990000312225B7516067517F0
:0C2FA6007E751810E4FD121E130227D7E0
:10330F00E52E14600504700280007442252DF8E646
:07331F00FFE4FD1233D02290
:0333E10002326253
:0333E40002257748
:0333E7000224902D
:102DC5001233DBE53E75F007A424F9F9741B35F0E1
:102DD500FA7BFF8B33F53489359000031221A7F573
:102DE5003912223B8B308A31893275F007E53EA4D2
:102DF5002407F582E5F0341CF583E493FB74019315
:102E0500FA740293F990000612225B75160675177F
:102E15007E751810E4FD121E13E54CB4020912323A
:0A2E2500A5853E2E852E4D0227D70D
:1031F4001232A51233DBE52E7007F53E7F0AFE80FE
:103204000CE52EB4010A753E017F0A7E001232F8E5
:063214001233DB023262FE
:0333EA000232624A
:0333ED000225773F
:0333F00002249024
:102FB2001233DBE53E75F007A424EBF9741B35F000
:102FC200FA7BFF8B33F53489359000031221A7F584
:102FD2003912223B8B308A31893275F007E53EA4E3
:102FE2002407F582E5F0341CF583E493FB74019326
:102FF200FA740293F990000312225B751606751794
:0C3002007E751810E4FD121E130227D783
:0C33B2001232A51233DB1233DB02326250
:0333F30002326241
:0333F60002257736
:0333F9000224901B
:102C7000446F20536F6D657468696E67200A7468CD
:102C8000656E204261636B20746F200A546F702060
:102C90004D656E752100446F20536F6D65746869D2
:102CA0006E67200A7468656E204261636B20746FE2
:102CB000200A54686973204D656E752100446F20A9
:102CC000536F6D657468696E67200A7468656E205D
:102CD0004261636B20746F200A46617468657220DC
:062CE0004D656E75210038
:10300E001233DBE53E75F007A424DDF9741B35F0B1
:10301E00FA7BFF8B33F53489359000031221A7F527
:10302E003912223B8B308A31893275F007E53EA486
:10303E002407F582E5F0341CF583E493FB740193C9
:10304E00FA740293F990000312225B751606751737
:0C305E007E751810E4FD121E130227D727
:102BEA00E52E14602A14603514605414606B2404B2
:102BFA0070671233DB7BFF7A2C7970E4F50DFD12D6
:102C0A0023A87FA07E0F1232F87D01E4FF805312C1
:102C1A0032A51233DB7BFF7A2C7996802B1233DBB9
:102C2A007BFF7A2C7996E4F50DFD1223A87FA07E0E
:102C3A000F1232F87442252DF8E6FF7D0380231225
:102C4A0033DB7BFF7A2C79BDE4F50DFD1223A87FD7
:102C5A00A07E0F1232F80232627442252DF8E6FF86
:062C6A00E4FD1233D0224C
:0333FC0002326238
:0333FF000225772D
:0334020002249011
:102D5900D293D294D295D296309309309406309575
:102D6900032096557F147E00123326309309309440
:102D79000630950320963F20930C30940930950630
:102D89003096037F122230930C2094093095063037
:102D990096037F142230930C3094092095063096BF
:102DA900037F132230930C30940930950620960343
:0C2DB9007F11227F00227F00227F002279
:1010D500B9A6C4DC00B2CECA00B2E2C1BF00D3EFEC
:1010E500D1D400B2E2CAD40046756E6374696F6EDE
:1010F50000506172616D65746572004D656173754F
:101105007265004C616E677561676500546573743F
:1011150000B6C1B3F6CABEDD00B1B3B9E2BFD8D6D9
:10112500C600B3F6B3A7C9E8D6C300D0DEB8C4C3BA
:10113500DCC2EB0052656164204461746100426168
:10114500636B4C6967687400466163746F727920DC
:10115500536574004368616E676520434F444500DD
:10116500E3D0D6B500CBC0CAB1BCE45400C1E9C3D5
:10117500F4B6C84B00B2E2C1BFCAB1BCE4004D65CC
:101185006E7530004D656E7531004D656E753200BA
:101195004D656E7533004D656E7534004D656E7524
:1011A50035004D656E7536004D656E753700D6D0C8
:1011B500CEC400456E676C69736800BCECB2E2C9C9
:1011C500CFC0ADB5E7D7E800C7E5BFD5B3F6B4EDF9
:1011D500BCC7C2BC00D4DACFDFC3FCC1EE00CAE491
:1011E500C8EBBFDAB2E2CAD400C4A3C4E2D6F7D6CC
:1011F500E1B2E2CAD400D6E1D0C5BAC5B2E2CAD4DA
:1012050000BCCCB5E7C6F7B2E2CAD4005075736826
:1012150055702052657300436C6561724572724367
:101225006F756E74004F6E6C696E65434D4420009A
:10123500537973496E7075745465737400535643CE
:101245002054455354004158697320544553540064
:1012550052656C61792054455354004D656E750097
:10126500D1A1D4F100C8B7C8CF00C8A1CFFB003FBA
:10127500C8B7C8CF3F0053656C656374004F6B00FA
:1012850043616E63656C003F204F4B203F00FF01BB
:10129500AB015501ABFF007EC3818181818199A599
:1012A500A5998181BD99A58181818181C37EFFF841
:1012B5000A080D08FAFF00E018E8F4F4F4F4E81859
:1012C500E0000000FC0C1424C4C424140CFCFF0131
:1012D500A9015701A9FF00010E091797D717090E94
:1012E500010000001F181611D0901116181FFF00DD
:1012F500AA005500AAFF000814224180E3222222F9
:101305003E0000003E222222E38041221408FFFF16
:10131500FFFFFF1F1F1F1F3F7FFFFF7F030101030C
:101325007FFFFF7F3F1F1F1F1FFFFFFFFFFFFF7F88
:101335003F3F3F3E3C180000000000C06020206099
:10134500C00000000000183C3E3F3F3F7FFFFFFE0E
:10135500FCFCFC7C3C1800000000000306040406AD
:101365000300000000001C3C7CFCFCFCFEFFFFFFB2
:10137500FFFFFFF8F8F8F8FCFEFFFFFEC08080C015
:10138500FEFFFFFEFCF8F8F8F8FFFFFFFFFFFF8107
:101395009D959D8195959595819D9589819D819930
:1013A5008599819D9181959595959581FFFEFF0084
:1013B5000000E424A4A420A424A4A4A020A4A4247C
:1013C500A4A4A0A02424242420E00000FFFFFF0003
:1013D50000007B4A4A7A020212021212121212020B
:1013E500021202021212120202030000FFFF3FE086
:1013F500E0E0E6E9E9E9E9E9E9E9E6E0E0E0E0E697
:10140500E9E9E9E9E9E9E9E9E9E6E0E0FFFF000002
:1014150000000000000000000000000000806018CF
:1014250004C444E28242020201010181423CF0907F
:10143500909090909090909090907058663118167A
:101445001B7F4C2311080804020619608000FF0069
:1014550030484878007E4849361860FE9292F292EC
:1014650092F29292F29292F29292F29293FE01018C
:1014750001010101010101010101013F24243F2472
:10148500243F24243F24243F24243F24243F00C018
:10149500201E1E1EDE1E1E2020C0000000000000B3
:1014A5000000000000004040800080404000000F28
:1014B50010E0E2E2E3E0E010100F0300000080809E
:1014C500808000000000000000FF00000000000018
:1014D5000003030303030300000000C0300C0BD11D
:1014E5003119060000004040201F20404000000048
:1014F5000000000000000000007C3B180804030009
:1015050000000000000000000000000000000000D6
:1015150000000000C020904824145414541454149E
:1015250054541424489020C000000000000000001E
:101535000000FC0300003F408000550055005100AD
:1015450040400080403F000003FC00000000000018
:101555000000030C30C08080808181818181898970
:10156500898989888880C0300C030000000000004C
:101575000000000000070404040404040404040437
:101585000404040404040700000000000000FF41F7
:101595005555555555555555415D45415D415D512E
:1015A500415D5541555555555555555541FFFF001B
:1015B500000000FC02010101191DC5E53D190101ED
:1015C5000102FC00000000000000000000FFFF0019
:1015D5000000000708101010101016D610204080CB
:1015E500F008070100010100DB00000000FFFF809B
:1015F50080808080808080808080809690809090A0
:1016050081909080909080909680808080FF0000EF
:1016150000000000000000000000000000000000C5
:1016250000000000000000000000000000000000B5
:1016350000000000000000000000000000000000A5
:101645000000000000000000000000000000000095
:101655000000000000000000000000000000000085
:101665000000000000000000000000000000000075
:101675000000000000000000000000000000000065
:101685000000000000000000000000000000000055
:101695000000000000000000000000000000000045
:1016A5000000000000000000000000000000000035
:1016B5000000000000000000000000000000000025
:1016C5000000000000000000000000000000000015
:1016D5000000000000000000000000000000000005
:1016E50000000000000000000000000000000000F5
:1016F50000000000000000000000000000000000E5
:1017050000000000000000000000000000000000D4
:101715000000000000000000001860806018000054
:10172500000000000000000004FC0404F80000C0F4
:101735002020C0000060A0A0200000C0A0A0C00024
:1017450000000000000004FC246498000040A0A0F4
:10175500C0000020F820000000C0A0A0C0000000CC
:1017650000000000FC3CC03CFC0000C0A0A0C00084
:101775000020F820000000C0A0A0C00020E040200C
:101785002000000000000000000000000000000034
:10179500000000000000000000000304030000003A
:1017A5000000000000000000020302020100000129
:1017B500020201000002020203000001020202000F
:1017C5000000000000000203020003020001020203
:1017D50003020000010202000001020202000000F3
:1017E50000000000030003000300000102020200E4
:1017F50000000102020000010202020002030200D1
:1018050000000000000000000000000000000000D3
:1018150000000000000000000000000000000000C3
:1018250000000000000000000000000000000000B3
:1018350000000000000000000000000000000000A3
:101A150000000000000000000080E0781E07071E9F
:101A250078E08000000000000000000000000000D9
:101A3500000000000080E0781E070100FEFFFFFEA9
:101A45000001071E78E08000000000000000000093
:101A55000080E0781E070100000000000F3F3F0FE7
:101A6500000000000001071E78E08000000060F81B
:101A7500DEC7C1C0C0C0C0C0C0C0C0C0C6CFCFC611
:101A8500C0C0C0C0C0C0C0C0C0C1C7DEF8600000D3
:101A9500000000000000000000000080C000000001
:101AA50000000000800020408000000000000000D1
:101AB500E02020202020100804020100FF40000043
:101AC5000830C20438C1021CE0030CF0000000001D
:101AD500070404040404081020408000FF000000EF
:101AE500100C43201C83403807C0300F0000000055
:101AF50000000000000000000000000103000000DD
:101B05000000000001000402010000000000FF10B9
:101B1500D5FF10DAFF10DEFF10E3FF10E8FF10ED30
:101B2500FF10F6FF1100FF1108FF1111FF1116FF3D
:101B3500111EFF1127FF1130FF1139FF1143FF114E
:101B45004DFF1159FF1165FF116AFF1172FF117ADF
:101B5500FF1183FF1189FF118FFF1195FF119BFF66
:101B650011A1FF11A7FF11ADFF11B3FF11B8FF11AF
:101B7500B3FF11B8FF11C0FF11CDFF11DAFF11E35B
:101B8500FF11EEFF11FBFF1206FF1211FF121CFFE2
:101B9500122AFF1235FF1242FF124BFF1255FF1298
:101BA50060FF1265FF126AFF126FFF1274FF126069
:101BB500FF127BFF1282FF1285FF128CFF1B13059C
:101BC500000000FF1B2205000000FF1B3104000080
:101BD50000FF1B3D04000000FF1B4904000000FF3F
:101BE5001B5508000000FF1B7907000000FF1B8E36
:101BF50007000000FF1B6D02000000FF1B730200C1
:101C05000000FF1BA305000000FF1BB2050000003C
:101C15001293141315131313139315931A131A937D
:10322900014C00013E01013700012D00013600016A
:053239002F00013D0023
:0833D0008F37ED6002F54C227D
:10335200123109122AB5EF60077F207E031232F87C
:04336200E53780EFDC
:03000000022B5E72
:0C2B5E00787FE4F6D8FD758157022BA5A6
:1021A700BB010CE58229F582E5833AF583E02250ED
:1021B70006E92582F8E622BBFE06E92582F8E22237
:0D21C700E58229F582E5833AF583E4932251
:1021D400EF8DF0A4A8F0CF8CF0A428CE8DF0A42E1F
:0221E400FE22D9
:1021E600BC000BBE0029EF8DF084FFADF022E4CCDD
:1021F600F875F008EF2FFFEE33FEEC33FCEE9DECA6
:10220600984005FCEE9DFE0FD5F0E9E4CEFD22EDEB
:10221600F8F5F0EE8420D21CFEADF075F008EF2F35
:10222600FFED33FD4007985006D5F0F222C398FD26
:052236000FD5F0EA22C3
:10223B00BB010789828A8302229A5005E9F80222A0
:10224B0091BBFE05E9F80222A389828A830222ACA4
:10225B00BB010DE58229F582E5833AF58302229ACB
:10226B005007E92582F8022291BBFE07E92582F887
:10227B000222A3E58229F582E5833AF5830222AC9B
:06228B008A838982E473DE
:102B6A00023389E493A3F8E493A34003F68001F2C5
:102B7A0008DFF48029E493A3F85407240CC8C3336C
:102B8A00C4540F4420C8834004F456800146F6DF3B
:102B9A00E4800B010204081020408090321AE47E7F
:102BAA00019360BCA3FF543F30E509541FFEE49330
:102BBA00A360010ECF54C025E060A840B8E493A3F7
:102BCA00FAE493A3F8E493A3C8C582C8CAC583CA22
:102BDA00F0A3C8C582C8CAC583CADFE9DEE780BEDA
:01323E00008F
:09229100E6FB08E6FA08E6F92272
:09229A00E0FBA3E0FAA3E0F92245
:0922A300E2FB08E2FA08E2F9226C
:0C22AC00E493FB740193FA740293F9228E
:00000001FF
